:020000040800F2
:1000000000100020DD4F0008E12C0008E32C000860
:10001000E52C0008E72C0008E92C0008000000008F
:10002000000000000000000000000000EB2C0008B1
:10003000ED2C000800000000EF2C0008F12C000857
:1000400029500008295000082950000829500008AC
:10005000295000082950000829500008295000089C
:10006000295000082950000829500008295000088C
:10007000295000082950000829500008295000087C
:1000800029500008295000082950000800000000ED
:1000900000000000000000000000000029500008DF
:1000A000295000082950000829500008295000084C
:1000B000295000082950000800000000F52C000815
:1000C0001531000800000000000000002950000861
:1000D000000000002950000829500008000000001E
:1000E000295000082950000829500008000000008D
:1000F0000000000000000000000000000000000000
:1001000000000000000000000000000000000000EF
:1001100000000000000000002950000829500008DD
:1001200000000000000000000000000000000000CF
:1001300000000000000000000000000000000000BF
:1001400000000000000000000000000000000000AF
:10015000000000000000000000000000000000009F
:10016000000000000000000000000000000000008F
:10017000000000000000000000000000000000007F
:10018000000000000000000000000000000000006F
:10019000000000000000000000000000000000005F
:1001A000000000000000000000000000000000004F
:1001B000000000000000000000000000000000003F
:1001C0000000000000000000000000005FF808F1DF
:1001D00010B5124C1023A360114B61609842E2608D
:1001E0000BD110330F480021236001F0CDFC0D48E6
:1001F000214601F09DFC0B480AE00B4B0B48002107
:10020000236001F0C1FC0948214601F091FC074838
:100210000121BDE8104001F0B7BC00BF380200204A
:10022000005400406C00024010580040440002405E
:100230002DE9F341002700970197B0F80480022BC5
:100240001FFA88F848F4807804468C4615469DF8D5
:100250002060A0F8048059D14FF6FF730193FFF797
:10026000B7FFA3889BB243F40063A38023889BB2AB
:1002700043F48073238005E0019B5A1E01920BB961
:100280000020A8E0A38AD807F6D54FF6FF730193A4
:10029000524B06F0FE061E701B78DBB2238204E090
:1002A000019B5A1E0192002BEAD0A38A9907F7D529
:1002B000238B9BB200934A4B9C420CD14FF400100D
:1002C00001F076FC0028F9D04648002101F05CFCE2
:1002D0004FF400100BE04FF4005001F069FC0028CF
:1002E000F9D04148002101F04FFC4FF4005001F0DB
:1002F0006DFCA38A5A07FCD523889BB243F4007394
:10030000238023889B05FCD4012064E0002B40D18E
:100310004FF6FF73019303889BB243F4807303800D
:1003200004E0019B5A1E0192002BA9D0A38AD80792
:10033000F7D52A4B06F0FE061E701B78DBB223822F
:100340004FF6FF73019304E0019B5A1E0192002BAC
:1003500096D0A38A9907F7D5238B65449BB2009367
:10036000634613F8012B228205E0A28A5207FCD5CE
:1003700013F8012B2282AB42F7D1A38A5807FCD590
:1003800023889BB243F40073238023889905FCD40F
:10039000BAE7838806F0FE069BB243F400738380BD
:1003A00083889BB243F480638380104B1F600B4BA8
:1003B0001E700B4B98420CBF0D4B0E4B1A600388FE
:1003C0009BB243F4807303802388DA05FCD4238B2B
:1003D0009B07FCD498E7BDE8FC8100BF64020020C5
:1003E000005400406C0002404400024028020020FB
:1003F0006C02002068020020838802299BB243F42B
:100400000073838083889BB243F4807383808388E6
:100410009BB20CBF43F4006343F480638380704756
:10042000F0B5012187B00646082003F06DF80120E1
:10043000014603F05DF8524B9E4219D14FF4001073
:10044000012103F06DF8C023ADF8043003238DF8CB
:1004500006304C481C2301A98DF8073002F093F9AF
:100460004FF40010012103F073F84FF4001021E065
:100470004FF48000012103F053F84FF48063ADF88E
:10048000043003238DF806303E481C2301A98DF863
:10049000073002F078F94FF400633A4801A9ADF84B
:1004A000043002F070F94FF48000012103F050F89D
:1004B0004FF48000002103F04BF84FF48043ADF877
:1004C0000E30ADF81430304B06AC2D4F44F8103DD3
:1004D00028222146ADF8102038464FF480620025CE
:1004E000ADF81220ADF80C5002F04AFA3023214644
:1004F0002648ADF8103002F043FABE42244C1DD11C
:10050000244801F099FA244B224884E8280010235B
:10051000A3604FF6FF73E3608023636121464FF4CD
:10052000405363622561A561E5612562A56201F022
:10053000FFFA1A4801F080FA18481CE0184801F048
:100540007BFA184B164884E828001023A3604FF666
:10055000FF73E3608023636121464FF4405363627D
:100560002561A561E5612562A56201F0E1FA0E4809
:1005700001F062FA0C48214601F0DAFA07B0F0BD4A
:1005800000540040000C0140801A06000058004052
:10059000380200206C0002401054004080000240ED
:1005A000440002401058004058000240F8B505468B
:1005B0000F4616461BB9BDE8F840FFF709BE114CBF
:1005C000114B616098424FF00001A160E2600AD1D6
:1005D00010330E48236001F0D7FA0C48214601F091
:1005E000A7FA0A4809E00A4B0A48236001F0CCFA4E
:1005F0000848214601F09CFA06480121BDE8F84070
:1006000001F0C2BA380200200054004080000240CD
:100610001058004058000240F7B54FF0000CCDF8DC
:1006200000C0CDF804C0B0F804C0022B1FFA8CFC47
:100630004CF4807C04460F4615469DF82060A0F8D7
:1006400004C05BD10123FFF7B1FFA3889BB243F441
:100650008053A380A3889BB243F40063A3804FF62A
:10066000FF73019323889BB243F48073238005E0DA
:10067000019B5A1E01920BB9002056E1A38AD907AB
:10068000F6D54FF6FF730193904B46F001061E70AE
:100690001B78DBB2238204E0019B5A1E0192002BDF
:1006A000EAD0A38A9A07F7D5238B9BB20093884B95
:1006B0009C420CD14FF0007001F07AFA0028F9D07A
:1006C0008448002101F060FA4FF000700BE04FF415
:1006D000003001F06DFA0028F9D07F48002101F0C8
:1006E00053FA4FF4003001F071FA23889BB243F4BF
:1006F0000073238023889B05FCD415E1002B40F078
:10070000ED80012A4FF6FF733AD1019303889BB223
:1007100043F48073038004E0019B5A1E0192002B76
:10072000AAD0A38AD807F7D5684B46F001061E70F9
:100730001B78DBB223824FF6FF73019304E0019B29
:100740005A1E0192002B97D0A38A9907F7D52388C8
:1007500023F480631B041B0C238072B6238B9BB293
:10076000009323889BB243F40073238062B6A38A6C
:100770005A06FCD5238A3B7023889B05FCD4CEE027
:10078000022A4ED1028892B242F4006202800193A2
:1007900003889BB243F48073038005E0019B5A1EDB
:1007A0000192002B3FF468AFA38AD807F6D54FF625
:1007B000FF730193454B46F001061E701B78DBB2B8
:1007C000238205E0019B5A1E0192002B3FF454AF97
:1007D000A38A9907F6D572B6238B9BB20093238820
:1007E00023F480631B041B0C238062B6A38A5A0780
:1007F000FCD572B60121204602F068F9238A3B70CD
:1008000062B6238A7B7023889B05FCD423889BB225
:1008100043F480632380238823F400631B041B0CB0
:1008200081E0019303889BB243F48073038005E069
:10083000019B5A1E0192002B3FF41EAFA38AD807DA
:10084000F6D54FF6FF730193204B46F001061E705C
:100850001B78DBB2238205E0019B5A1E0192002B1C
:100860003FF40AAFA38A9907F6D5238B9BB2009376
:1008700025E0032D08D0A28A5207FCD5228A013D2B
:10088000032D03F8012B1BD1A28A5507FCD5228822
:1008900022F480621204120C228072B6228A1A702C
:1008A000228892B242F400722280228A5A7062B682
:1008B0009F1CA28A5006FCD5228A00259A703B46CE
:1008C000002DD6D123889905FCD428E064020020AD
:1008D00000540040800002405800024083880122FA
:1008E0009BB243F400738380838816439BB243F426
:1008F000806383800D4B1A600D4B1E700D4B984228
:100900000CBF0D4B0D4B1D6003889BB243F48073ED
:1009100003802388DA05FCD4238B9B07FCD423882F
:100920009BB243F4806323800120FEBD2802002097
:1009300064020020005400406C0200206802002085
:10094000EFF309800046704780F309887047EFF3A2
:1009500008800046704780F308887047EFF31280E4
:10096000704780F311887047EFF31080704780F371
:1009700010887047EFF31380704780F31388704737
:10098000EFF31480704780F31488704700BA704703
:1009900040BA7047C0BA704790FAA0F07047D0E8EC
:1009A0004F0FC0B27047D0E85F0F80B2704750E879
:1009B000000F7047C1E8430F18467047C1E8530F56
:1009C0001846704741E8000318467047034610B5C3
:1009D00040689C681A68D968A2EB701280EAF4300B
:1009E00018600C19801851185C609960D86010BDAF
:1009F000036910B50360436904464360803BB3F567
:100A0000E06F134808D3FFF7E1FF4FF4FA7380B2A9
:100A100043431B0C323308E0FFF7D8FF40F6B833EE
:100A200080B243431B0C03F5FA63E3600023A36029
:100A30000748FFF7CBFF4FF4405380B243431B0CF2
:100A400023610348FFF7C2FFC0F34A10606110BD85
:100A50000005002038B5064B04460360C160816084
:100A6000416014252046FFF7B1FF013DFAD138BDA2
:100A7000ED5EEAF137B5134C0123ADF804300325E0
:100A80001423204601A98DF807308DF8065001F097
:100A90007AFE4FF48073ADF8043001A910230A48A0
:100AA0008DF807308DF8065001F06DFE00238DF8AB
:100AB0000730042320460DEB0301ADF8043001F0AC
:100AC00062FE3EBD00080140000C0140014B0122C6
:100AD0001A61704700080140014B01225A617047BA
:100AE00000080140012008B5014602F001FD4FF465
:100AF0000010012102F014FD44F20100012102F076
:100B000003FD01214FF4037002F0FEFC084BF021BD
:100B10001A684FF47A73B2FBF3F2064B013A5A604B
:100B2000054A82F8231000229A6007221A6008BD45
:100B30001402002010E000E000ED00E082B001901F
:100B4000019A034B1A601A68002AFCD102B0704760
:100B50002C020020034B1A6812B11A68013A1A607D
:100B6000704700BF2C02002070B504684FF4405558
:100B7000002CBCBF04F53F543F3494FBF5F605FB55
:100B80001644046011482040002805DA01386FEA55
:100B900000506FEA10500130C4F30134012CC0F54D
:100BA0007F654FF0000606D0022C09D00F350D608E
:100BB00010601E6070BD0F350E601560186070BD4E
:100BC0000F35086016601D6070BD00BFFF0F00800C
:100BD00008B54FF4407000F00FF8064B002283F880
:100BE0001F234FF000421A60102283F820230122B5
:100BF0005A6008BD00E100E040F0BF60024B40F4E5
:100C00000030D860704700BF00ED00E0C37810B539
:100C1000F3B1154B4178DB688478DB43C3F30223DF
:100C2000C3F1040291400F22DA40037822400A43C4
:100C3000120103F16043D2B203F5614383F800234C
:100C400003780122590903F01F0302FA03F307E0B6
:100C500003780122590903F01F0302FA03F320313C
:100C6000024A42F8213010BD00ED00E000E100E052
:100C700021F0604121F07F01014B084398607047EB
:100C800000ED00E0044B1A6909B1104301E022EACB
:100C900000001861704700BF00ED00E0044B04281D
:100CA0001A680CBF42F0040222F004021A60704776
:100CB00010E000E008B5134B984207D14FF40070E4
:100CC000012102F039FC4FF4007014E00E4B984201
:100CD00007D14FF48060012102F02EFC4FF48060B8
:100CE00009E00A4B98420BD14FF40040012102F079
:100CF00023FC4FF400400021BDE8084002F01CBC7A
:100D000008BD00BF0024014000280140003C014014
:100D100042680B6822F4702222F4807213430A792D
:100D200010B543EA022343608A68CB6884681A439B
:100D3000084B234013434A7943EA420383600B7C08
:100D4000C26A013B22F47002DBB242EA0353C3627F
:100D500010BD00BFFDF7F1FF002303600371437175
:100D60008360C360012303747047836811B143F04B
:100D7000010301E023F0010383607047836811B130
:100D800043F4807301E023F4807383607047C9B239
:100D900043680AB1194301E023EA01014160704749
:100DA000836843F00803836070478068C0F3C00025
:100DB0007047836843F00403836070478068C0F322
:100DC00080007047836811B143F4A00301E023F46D
:100DD000A003836070478068C0F380507047436809
:100DE000013923F4604343EA413343607047436869
:100DF00011B143F4006301E023F4006343607047E2
:100E0000092970B54FF003040BD94C4307251E3C4C
:100E1000A540A340C66826EA050545EA0304C46068
:100E20000AE04C430725A54003FA04F4066926EAC4
:100E3000050545EA04030361062A4FF005030BD8B4
:100E4000013A53431F229A4001FA03F3446B24EA08
:100E500002021343436370BD0C2A0BD853431F2275
:100E6000233B9A409940046B24EA020242EA0103C0
:100E7000036370BD53431F22413B9A409940C46AAB
:100E800024EA020242EA0103C36270BD836811B121
:100E900043F4801301E023F4801383607047C06C37
:100EA00080B27047014B1868704700BF4C24014066
:100EB000436811B143F4806301E023F4806343602D
:100EC0007047436811B143F4805301E023F4805329
:100ED00043607047836823F4E0431943816070479F
:100EE000836811B143F4004301E023F400438360BD
:100EF0007047836811B143F4021301E023F4021335
:100F0000836070478068C0F340507047092970B50E
:100F10004FF003040BD94C4307251E3CA540A340CA
:100F2000C66826EA050545EA0304C4600AE04C43A6
:100F30000725A54003FA04F4066926EA050545EAF3
:100F400004030361846BC4F30153D31A02330522F3
:100F5000DBB253431F229A40994024EA020444EA38
:100F60000103836370BD836B013923F4401343EAAB
:100F700001538363704782B0002301930190019B6A
:100F8000C9180191019B1A6002B0704782B000231A
:100F900001930190019B283359180191019B186816
:100FA00080B202B07047436823F4400323F4007317
:100FB000194341607047416282627047436823F081
:100FC0001F03194341607047044B9A6810B142F403
:100FD000000201E022F400029A6070470024014000
:100FE000036819420CBF002001207047C94301600B
:100FF00070474368006810EA112004D0C9B2194252
:101000000CBF0020012070476FEA1121016070477A
:1010100008B5012002F0A8FA0020BDE8084002F05F
:10102000A3BA014B1860704704860D42014B18604B
:10103000704700BF00860D42014B1860704700BF2B
:1010400088860D42044A938D23F460731B041B0CA5
:1010500018439085704700BF006C0040044A938D90
:1010600023F07F031B041B0C18439085704700BFBF
:10107000006C004082B000230193044B0193019B5C
:10108000C0180190019B196002B07047006C0040CD
:1010900082B000230193054B0193019BC01801907E
:1010A000019B188880B202B0704700BF006C0040FE
:1010B000014B1868C0B27047A0860D42034B9A8E50
:1010C00092B242F001029A86704700BF006C004065
:1010D000014B1868C0B27047A4860D42034B9A8E2C
:1010E00092B242F002029A86704700BF006C004044
:1010F00008B50B4B984207D14FF00070012102F068
:1011000027FA4FF0007006E04FF08060012102F0F6
:101110001FFA4FF080600021BDE8084002F018BAC5
:1011200000640040036823F002030360036843F097
:10113000010303604FF480334268D20701D4013BBE
:10114000FAD1436813F0010355D08B79012B036862
:101150000CBF43F0800323F080030360CB79012BA5
:1011600003680CBF43F0400323F0400303600B7A95
:10117000012B03680CBF43F0200323F0200303601E
:101180004B7A012B03680CBF43F0100323F01003CC
:1011900003608B7A012B03680CBF43F0080323F034
:1011A00008030360CB7A012B03680CBF43F00403F0
:1011B00023F0040303608B78CA789B0743EA026339
:1011C0000A7943EA02434A7943EA02530A88013A18
:1011D0001343C361036823F0010303604FF48033BA
:1011E0004268D20701D5013BFAD1406800F0010006
:1011F00080F00100704718467047837A01219940BA
:10120000354B70B5D3F80022CC4342F00102C3F84D
:101210000022D3F81C222240C3F81C22027BAAB968
:10122000D3F80C22C6882240C3F80C22827A458863
:10123000483245EA064543F8325003888288857A69
:1012400043EA0242254BED00EB185A60037B012B69
:1012500016D1214B0688D3F80C2245880A43C3F8DF
:101260000C22827A45EA0645483243F83250C38858
:101270008288857A43EA0242184BED00EB185A60E7
:10128000C37A154A1BB9D2F80432234002E0D2F8DF
:1012900004320B430589C2F804320F4B2DB9D2F842
:1012A00014522C40C2F8144206E0012D04D1D3F8A8
:1012B00014220A43C3F81422427B012A04D1D3F832
:1012C0001C221143C3F81C12D3F8002222F00102A1
:1012D000C3F8002270BD00BF0064004040660040BB
:1012E00000238371C371037243728372C37283706C
:1012F000C3700323037102234371012303807047EA
:101300000D4BD3F8002242F00102C3F80022D3F8BB
:10131000002222F47C5222F00E02C3F80022D3F8FD
:10132000002242EA0020C3F80002D3F8002222F093
:101330000102C3F8002270470064004043690AB10B
:10134000194301E023EA01014161704782680346C5
:10135000500170B546D49A68120145D49A68D000FD
:1013600044D4042070BD0C684E7A9D5846EA44541B
:101370002C4306E04D689E5844EAC50434434E7A37
:1013800034439C508A7A00F11804240102F00F02C1
:101390008A721A19556825F00F05556055688E7ABE
:1013A000354355604E7B8A7B360446EA0266CA7A2C
:1013B00016430A7B46EA022603EB0012C2F8886154
:1013C00002F5C4754A7C8E7C120442EA0662CE7B2A
:1013D000097C324342EA01226A601A5942F0010252
:1013E0001A5170BD002002E0012000E0022000F14F
:1013F000180212019C5804F001049C500C7A002C35
:10140000B1D0B7E701290FD002D3022929D118E0C2
:101410008268836802F0010203F0020343EA820358
:101420008268C2F3806218E08368826803F4807384
:1014300002F400729B0943EA12238268C2F3C0627D
:101440000BE08368826803F4803302F400329B0B64
:1014500043EA12438268C2F300721343024AD05C2B
:1014600070470023FAE700BF2C500008012907D07D
:1014700002D302290CD107E0836843F0800306E021
:10148000836843F4004302E0836843F4000383600D
:101490007047202309B9C36070470361704709B9D9
:1014A000C06802E0012903D1006900F00300704721
:1014B0000020704730B501F11B042301C55805F029
:1014C0000405EDB21572C35815B95B0D136001E048
:1014D000DB08536024010319045904F00204547218
:1014E0005C6804F00F0494725B681B0AD37400EB11
:1014F0000113D3F8B85103F5DC74D572D3F8B851A1
:101500002D0A1573D3F8B8512D0C5573D3F8B83193
:101510001B0E93736368D37363681B0A1374636849
:101520001B0C537463681B0E9374202309B9C360AA
:1015300030BD036130BD036811B143F4803301E075
:1015400023F4803303607047036823F0030343F000
:1015500002030360406800F00300B0F1020CDCF10C
:10156000000050EB0C007047036823F00203036097
:101570004FF480334268920701D5013BFAD14068AD
:1015800080F00200C0F340007047836919420CBF2D
:10159000002001207047836923EA010181617047BF
:1015A00020292FD00CD8062920D004D8042925D0F2
:1015B00005293FD118E007291CD008293AD11FE09E
:1015C000B1F5007F26D005D840291DD0B1F5807F28
:1015D00030D11BE0B1F5803F28D0B1F5003F21D0DC
:1015E000B1F5806F26D119E0806810E08068C0F303
:1015F000002070478068C0F300407047C06816E064
:10160000C06810E0006912E000690CE0806900F039
:10161000010070478069C0F3400070478069C0F3E3
:10162000800070474068C0F3001070474068C0F306
:10163000C00070470020704720292FD00CD8062901
:1016400020D004D8042924D005293DD118E0072949
:101650001CD0082938D11EE0B1F5007F27D005D86D
:1016600040291DD0B1F5807F2ED11CE0B1F5803F1F
:1016700026D0B1F5003F25D0B1F5806F24D11AE016
:10168000012301E04FF48073836070474FF480338F
:10169000FAE7082300E01023C3607047082300E046
:1016A000102303617047836923F0010306E0836917
:1016B00023F0020302E0836923F00403836170478F
:1016C000082300E010234360704700BF08B54FF0C7
:1016D0008040012101F03CFF4FF080400021BDE837
:1016E000084001F035BF064B10B5196844880288E0
:1016F00001F0F30122430A4392B21A6010BD00BF09
:1017000000780040034B186018B9034A1368DB07E0
:10171000FCD4704700000F4200780040014B186075
:10172000704700BF04000F42014B5860704700BF74
:1017300000780040014B9860704700BF007800407F
:10174000014B5861704700BF00780040014B986919
:10175000C0B2704700780040014B01221A60704708
:1017600000020F42014B1860704700BF04020F4295
:1017700020F07F43000F16BF044A054A1B0C126875
:101780001A420CBF00200120704700BF0C780040B7
:1017900010780040054BC043196920F003001A6916
:1017A00001F0020101430A401A61704700780040CD
:1017B000034A11681369184018BFC1F3400070470D
:1017C00000780040054BC043196920F003001A69F6
:1017D00001F0020101430A401A617047007800409D
:1017E000014B01229A60704700300240014B1860A3
:1017F000186870470030024010B50023054C03E024
:1018000050F82320013322608B42F9D1014B186834
:1018100010BD00BF00300240014B1868704700BF88
:1018200000300240014B1871704700BF0030024089
:10183000014B1879704700BF0030024008B54FF0E7
:101840000050012101F084FE4FF000500021BDE85E
:10185000084001F07DBE30B540F6FE758540084B6E
:101860001A6822EA050591E8140014438A68C968D9
:1018700022430A4302FA00F02843186030BD00BF3B
:10188000007400400023036043608360C3607047BE
:10189000064B012219B1824019680A4303E08240D5
:1018A000196821EA02021A60704700BF0074004004
:1018B000054B814012B11A68114302E01A6822EA0E
:1018C00001011960704700BF00740040064B4FF4DF
:1018D000805219B1824019680A4303E082401968B6
:1018E00021EA02021A60704700740040064B0009AA
:1018F000012219B1824059680A4303E082405968C5
:1019000021EA02025A60704700740040044B5A6892
:1019100010B142F0030201E022F003025A60704766
:1019200000740040054B814012B11A68114302E077
:101930001A6822EA01011960704700BF0074004074
:1019400082B000230193054B0193019B08331818C3
:101950000190019B196002B0704700BF0074004005
:1019600082B000230193054B0193019B1433181897
:101970000190019B196002B0704700BF00740040E5
:101980000828044B0CBF42EA012142EA0141C15040
:10199000704700BF2074004082B000230193064BC3
:1019A0000193019B2C3303EB90000190019B18687D
:1019B00080B202B0704700BF007400408140034B0A
:1019C0005B6B19420CBF002001207047007400407F
:1019D0008140014B59637047007400408140054BC2
:1019E0001A68586B084003D011420CBF0020012038
:1019F000704700BF007400408140014B596370473D
:101A000000740040014B1868000C7047002004E08F
:101A1000024B1868C0F30B00704700BF002004E0C1
:101A2000044B5A6809B1104301E022EA00005860F3
:101A3000704700BF002004E0036823F00103036047
:101A40000023036043608360C3602D4B984200D144
:101A500026E02C4B984200D12CE02B4B984200D131
:101A600032E02A4B984200D138E0294B984200D10D
:101A70003EE0284B984206D153F8682C42F470029D
:101A800043F8682C7047244B984206D153F87C2CBD
:101A900042F0706243F87C2C7047204B984206D18C
:101AA00053F8042C42F00F0243F8042C70471C4BEF
:101AB000984206D153F8182C42F0F00243F8182C43
:101AC0007047184B984206D153F82C2C42F47062A0
:101AD00043F82C2C7047144B984206D153F8402CF5
:101AE00042F4704243F8402C7047104B984205D1A5
:101AF00053F8542C42F4702243F8542C704700BF22
:101B0000080002401C000240300002404400024035
:101B1000580002406C00024080000240080402406D
:101B20001C040240300402404404024058040240B5
:101B300070B58C680D6A066845EA04020C698B6A08
:101B400022434C6926F4FF4622438C6926F0700636
:101B50002243CC6914434A6A22431343334303604C
:101B6000CB6843600B6883604B68C36070BD002323
:101B7000036043608360C360036143618361C36149
:101B80000362436283627047036811B143F001034B
:101B900001E023F001030360704703680AB11943B1
:101BA00001E023EA010101607047406880B270479C
:101BB000C3004CBF034B044B1B6803420CBF002007
:101BC000012070470004024000000240C2004CBFE8
:101BD000014B024B58607047000402400000024075
:101BE000C1004CBF034B044B1B6803420CBF0020D9
:101BF000012070470004024000000240C3004CBFB7
:101C0000014B024B58607047000402400000024044
:101C1000044B00221A605A609A60DA60024A5A61E4
:101C2000704700BF00040140FFFF0F00837910B52B
:101C3000002B29D01A4B01681C68CA4314401C6051
:101C40005C6822405A60027902F1804202F58232D9
:101C500014682143116002689C68D1430C409C6069
:101C6000DC682140D9604179102906D19968114377
:101C70009960D9680A43DA6010BD01F1804303F529
:101C8000823319680A4308E00379016803F180434D
:101C900003F582331A6822EA01021A6010BD00BF00
:101CA0000004014000230C22036003714271837120
:101CB0007047024B1A6910431861704700040140D5
:101CC000034B5B6918420CBF00200120704700BF26
:101CD00000040140014B5861704700BF00040140FF
:101CE000054B1A685B69034004D010420CBF00200A
:101CF000012070471846704700040140014B5861AD
:101D0000704700BF00040140034B1A6802F038021C
:101D100010431860704700BF00200240044B1A684F
:101D200022F008021A601A6810431860704700BF5A
:101D300000200240044B1A6822F010021A601A6850
:101D400010431860704700BF00200240034B044A54
:101D50005A6002F188325A60704700BF002002408A
:101D600023016745034B044A5A6002F188325A60E6
:101D7000704700BF0020024023016745024B1A69EB
:101D800042F080021A61704700200240024B1A693B
:101D900042F080021A61704700200240014BD8696E
:101DA0008008704700200240014B186A704700BF4E
:101DB00000200240024BD869C0F34000704700BFCA
:101DC00000200240024B1868C0F34010704700BF6B
:101DD00000200240044B1A6909B1104301E022EAD5
:101DE00000001861704700BF002002400128064B28
:101DF00003D1D86900F001007047DB6818420CBFBE
:101E000000200120704700BF00200240014BD86035
:101E1000704700BF00200240084BDA68D10709D4A0
:101E2000DA68520708D4DB6813F0100F0CBF0420E7
:101E300003207047012070470220704700200240B5
:101E4000084BDA68D20709D4DA68500708D4DB688F
:101E500013F0100F0CBF04200320704701207047BF
:101E6000022070470020024010B50446FFF7E8FF4B
:101E700002E0FFF7E5FF013C012803D1002CF8D177
:101E8000052010BD002C08BF052010BDF8B5124C70
:101E9000124B0546A36003F18833A3604FF4005052
:101EA0000E461746FFF7E0FF042814D1236945F0DA
:101EB000F80543F0100323612E43094B37435F803D
:101EC0004FF40050FFF7D0FF052804D0226941F6F7
:101ED000EF7313402361F8BD0020024023016745E2
:101EE00000F8FF1F38B505464FF43020FFF7BCFF60
:101EF000042838D11C4C1D4B4FF43020A36003F153
:101F00008833A360236943F020032361236943F0EE
:101F100040032361FFF7A8FF04281DD1226941F681
:101F2000DF7313402361236943F010032361104BD7
:101F30000DB1002200E0A5221A804FF43020FFF7F7
:101F400093FF052801D1052038BD074A41F6EF73FC
:101F500011690B40136138BD0528F4D0226941F6A0
:101F6000DF731340236138BD002002402301674521
:101F700000F8FF1F10B504464FF40050FFF774FF40
:101F8000042845D1234B2449E443996001F1883169
:101F900099601969E2B241F01001FF2A196104D178
:101FA000C4F30723FF2B0ED108E01C4B4FF4005065
:101FB0001A81FFF759FF042822D1F1E7C4F3074340
:101FC000FF2B0ED108E0154A4FF400505381FFF764
:101FD0004BFF0428F2D013E0240EFF2C0AD104207A
:101FE00010E00E4A4FF400509381FFF73DFF0428A4
:101FF000F2D005E0094B4FF40050DC81FFF734FFCD
:10200000052805D0034A41F6EF7311690B401361AF
:1020100010BD00BF002002402301674500F8FF1FEC
:1020200070B505464FF400500E46FFF71DFF04281B
:1020300015D10B4C0B4B4FF40050A36003F18833C8
:10204000A360236943F0100323612E80FFF70CFF88
:10205000052804D0226941F6EF731340236170BD57
:10206000002002402301674570B505464FF400503B
:102070000E46FFF7F9FE042810D1094C4FF400502A
:10208000236943F0010323612E80FFF7EDFE05284D
:1020900004D0226941F6FE731340236170BD00BF76
:1020A0000020024073B5002306464FF400500D4651
:1020B0000193FFF7D9FE04281ED1104C4FF40050B5
:1020C000236943F001032361ABB23380FFF7CCFEF9
:1020D000042808D102360196019B2D0C1D804FF477
:1020E0000050FFF7C1FE052801D1052004E0226958
:1020F00041F6FE73134023617CBD00BF0020024007
:1021000038B5FFF757FE00280CBFA52500254FF472
:102110003020FFF7A9FE04282BD1164C164B4FF4A4
:102120003020A36003F18833A360236943F02003C8
:102130002361236943F040032361FFF795FE0428E0
:102140000ED1226941F6DF731340236123694FF4F6
:10215000005043F010032361084B1D80FFF784FEFD
:10216000052801D1052038BD226941F6EF731340DF
:10217000236138BD002002402301674500F8FF1F9E
:1021800010B54FF43020FFF76FFE042813D10A4C2E
:102190004FF43020236943F004032361236943F0A3
:1021A00040032361FFF760FE052804D0226941F651
:1021B000FB731340236110BD0020024038B5054673
:1021C0004FF43020FFF750FE042814D10A4C4FF48E
:1021D0003020236943F0020323616561236943F0E2
:1021E00040032361FFF740FE052804D0226941F631
:1021F000FD731340236138BD0020024010B5044632
:10220000FFF71EFE02E0FFF71BFE013C012803D191
:10221000002CF8D1052010BD002C08BF052010BDF2
:1022200010B54FF43020FFF7E9FF042813D10A4C12
:102230004FF43020236943F004032361236943F002
:1022400040032361FFF7DAFF052804D0226941F635
:10225000FB731340236110BD002002404FF0204368
:1022600018B943F2DB021A6003E043F2D20243F8EA
:1022700020206FF070434FF02042411C42F8213083
:1022800002F5827242F82030704710280CBF054BCF
:10229000054B4022182119605A604FF0FC329A60B9
:1022A000DA607047600000A0800000A0054B182293
:1022B0001A6000225A604FF0FC329A60DA601A61AC
:1022C000704700BFA00000A070B543688468816AB1
:1022D00044EA0305C36802681D430369082C45EA04
:1022E0000305436945EA0305836945EA0305C369B4
:1022F00045EA0305036A45EA0305436A45EA030321
:1023000043EA0105C36A45EA03054FF0204343F859
:10231000225005D153F8224044F0400443F82240B3
:10232000036B561C1C689D69B1F5804F45EA040596
:102330005C6845EA04159C6845EA0425DC6845EAC2
:1023400004451C695B6945EA045444EA03644FF0A0
:10235000204343F8264010D1436B1968986908431D
:10236000596840EA0110996840EA012019695B69DF
:1023700040EA015141EA036101E06FF07041024B14
:1023800043F8221070BD00BF040100A042688368BA
:1023900070B542EA0304C36844F008041C430369AF
:1023A0001C43436944EA4324836944EA4334C369D0
:1023B0009A685D68120442EA05251A68D968036ABA
:1023C0002A4342EA01619A685E6812041D6842EA83
:1023D0000626DA6803683543102B0CBF034B044B09
:1023E00045EA02621C609960DA6070BD600000A07E
:1023F000800000A0036810B543F01002436842EA71
:102400004322836842EA4332134B1A60C2689168E0
:102410005468090441EA042411682143D46802691C
:1024200041EA0461996091685468090441EA04240E
:1024300011682143D468426941EA0461D960916816
:102440005068090441EA002011680143D06841EA5C
:102450000061196110BD00BFA00000A0022242600F
:102460004FF480520262016B4FF4005210B5426289
:1024700000230F22FF2403608360C3600361436174
:102480008361C3618362C3620A604A608C60CA6010
:102490000A614A618B61416B0A604A608C60CA6064
:1024A0000A614A618B6110BD10230360C269002379
:1024B00043608360C360036143618361FC231360F5
:1024C00053609360D360026A136053609360D3607B
:1024D0007047C2680023036043608360FC2313607D
:1024E00053609360D3600269136053609360D3605C
:1024F0004269136053609360D36070474FF020438C
:1025000021B153F8202042F0010203E053F82010DB
:10251000024A0A4043F82020704700BFFEFF0F0028
:1025200041B110280CBF084B084B1A6842F0040256
:102530001A60704710280CBF034A044A044B116804
:102540000B401360704700BF600000A0800000A037
:10255000FBFF0F00054B18B11A6842F0040202E0BD
:102560001968034A0A401A60704700BFA00000A023
:10257000FBFF0F0041B110280CBF084B084B1A6835
:1025800042F040021A60704710280CBF034A044A08
:10259000044B11680B401360704700BF600000A03F
:1025A000800000A0BFFF0F0010280CBF014B024BA2
:1025B00058697047600000A0800000A05AB1102840
:1025C00001D10D4B04E0B0F5807F0CBF0B4B0C4BE1
:1025D0005A6811430EE0102804D1074B5A6822EACA
:1025E000010107E0B0F5807F0CBF044B044BC943E9
:1025F0005A68114059607047600000A0800000A038
:10260000A00000A0102801D1064B04E0B0F5807FA7
:102610000CBF054B054B5B680B420CBF0020012033
:10262000704700BF600000A0800000A0A00000A0D4
:10263000102804D1074B5A6822EA010107E0B0F5DF
:10264000807F0CBF044B054BC9435A681140596049
:10265000704700BF600000A0800000A0A00000A0A4
:10266000102801D1084B04E0B0F5807F0CBF074B68
:10267000074B5B6813EA010004D013EAD1010CBFD9
:1026800000200120704700BF600000A0800000A073
:10269000A00000A0102804D1074B5A6822EAD101FB
:1026A00008E0B0F5807F0CBF044B054BC9085A68A1
:1026B00022EA010159607047600000A0800000A07C
:1026C000A00000A008B5234B984205D104200121A9
:1026D00000F032FF042036E01F4B984205D108205D
:1026E000012100F029FF08202DE01C4B984205D164
:1026F0001020012100F020FF102024E0184B984208
:1027000005D12020012100F017FF20201BE0154BF0
:10271000984205D14020012100F00EFF402012E038
:10272000114B984205D18020012100F005FF802047
:1027300009E00E4B98420BD14FF48070012100F05C
:10274000FBFE4FF480700021BDE8084000F0F4BEAD
:1027500008BD00BF00080140000C0140001001400E
:102760000014014000180140001C014000200140FD
:102770000120014608B500F0DFFE01200021BDE880
:10278000084000F0D9BECB782DE9F043DA0648BF07
:102790008A78098803F00F0548BF154311F0FF0F31
:1027A0001FD0046800224FF0010C4FF00F080CFA04
:1027B00002F707EA0106BE420FD1970008FA07F9AF
:1027C00005FA07F724EA0904282B44EA070401D193
:1027D000466102E0482B08BF06610132082AE6D1B3
:1027E0000460FF2921D9446800224FF0010C4FF00A
:1027F0000F0802F108070CFA07F707EA0106BE42C4
:102800000FD1970008FA07F905FA07F724EA090437
:10281000282B44EA070401D1466102E0482B08BF97
:1028200006610132082AE4D14460BDE8F0834FF626
:10283000FF730380022383700423C370704783688F
:1028400019420CBF002001207047806880B2704799
:10285000C36819420CBF002001207047C06880B2D5
:10286000704701617047416170470AB1016170476B
:1028700041617047C160704741F480338361816179
:102880008361836983697047054A10B514684FF600
:102890008073234041EA00110B43136010BD00BF59
:1028A00000000140014B1860704700BF1C0020422F
:1028B0000028164A30B500F44015B4BFD3695368F8
:1028C000B5F5401F84B206D1556823F0706325F03A
:1028D000706555600FE0C20205D5C0F303420325C1
:1028E00005FA02F203E0420D120104FA02F223EAB1
:1028F000020343F0706319B1420D12019440234367
:10290000024A0028B4BFD361536030BD00000140CB
:1029100001F0030230B592000F2494409040074B21
:102920008908023153F8215025EA040443F8214074
:1029300053F82140044343F8214030BD00000140DA
:10294000014B1860704700BFDC00204208B50B4BFC
:10295000984207D14FF40010012100F0F9FD4FF427
:10296000001006E04FF48000012100F0F1FD4FF46B
:1029700080000021BDE8084000F0EABD005400409E
:10298000F0B587B00446868801A80D4600F06AFDC0
:1029900003992D4826F03F063604B1FBF0F0360CC3
:1029A00087B23E43A68022882B6822F001021204DF
:1029B000120C2280254A93420AD85B00B1FBF3F344
:1029C00001379BB2BFB2032B98BF0423278421E0B9
:1029D000EE884BF6FF72964204D103225343B1FBBB
:1029E000F3F305E019225343B1FBF3F343F48043BF
:1029F0009BB2C3F30B020AB943F001034FF4967282
:102A000050434FF47A7290FBF2F0013080B243F4FD
:102A100000432084A383238869899BB243F0010388
:102A200023802388AA8823F4816323F002031B04F4
:102A30000A431B0C13439BB223802A89AB8913439F
:102A40009BB2238107B0F0BD40420F00A086010079
:102A500041F288330360002383804BF6FF720381C9
:102A600043814FF48043C28083817047038819B14A
:102A70009BB243F0010303E023F001031B041B0C92
:102A800003807047838819B19BB243F4006303E06D
:102A900023F400631B041B0C83807047838819B1E7
:102AA0009BB243F4805303E023F480531B041B0CBC
:102AB00083807047038819B19BB243F4807303E0AD
:102AC00023F480731B041B0C03807047038819B127
:102AD0009BB243F4007303E023F400731B041B0C4C
:102AE00003807047038819B19BB243F4806303E00D
:102AF00023F480631B041B0C03807047838901F05F
:102B0000FE019BB223F0FE030B4383817047838950
:102B100019B19BB243F0010303E023F001031B044E
:102B20001B0C83817047038819B19BB243F04003AB
:102B300003E023F040031B041B0C038070478388D1
:102B40009BB20AB1194301E023EA01018180704779
:102B500001827047008AC0B2704712B141F0010192
:102B600001E001F0FE010182704782B00023019371
:102B70000190019BC9180191019B188880B202B095
:102B80007047038829B16FEA43436FEA53439BB20E
:102B900001E0C3F30E0303807047B1F5005F0388C3
:102BA00003D19BB243F4005303E023F400531B040E
:102BB0001B0C03807047038819B19BB243F4805308
:102BC00003E023F480531B041B0C03807047B1F512
:102BD000006F038803D19BB243F4006303E023F446
:102BE00000631B041B0C03807047038819B19BB260
:102BF00043F0200303E023F020031B041B0C03809D
:102C00007047008BC0F307207047038819B19BB24F
:102C100043F0100303E023F010031B041B0C03809C
:102C20007047038819B99BB243F0800303E023F097
:102C300080031B041B0C03807047B1F5804F838B0E
:102C400004D023F480431B041B0C02E09BB243F42A
:102C5000804383837047838A008B9BB243EA0040A2
:102C6000084020F07F40431A584258417047838AF9
:102C7000008B9BB243EA004020F07F40704782B057
:102C80000023009301930B0F01900093009B21F010
:102C90007F4113B1019B143302E0019B090C1833EF
:102CA0000193019B1B6819420CBF0020012002B058
:102CB0007047C94389B2818270478388808A9BB2FA
:102CC00080B2084006D001F0E06113EA11410CBF68
:102CD000002001207047C94389B28182704700BF3C
:102CE0007047FEE7FEE7FEE7FEE770477047704774
:102CF000FDF730BF13B50023009301936B4B9A8A05
:102D000092B200921B8B9BB20193019B13F00103C3
:102D100033D1009A900704D5654A0093019313704C
:102D20005370009B19060CD5614B62491A78D2B2D8
:102D3000885C5E490132D2B208821A700023009387
:102D40000193009B5A060CD5594B58495A78088A6A
:102D50005949D2B288540132D2B25A70002300933A
:102D60000193009BDB0608D5504B1A8892B242F0C3
:102D700001021A80002300930193009BD80706D517
:102D80004E4B1A78494B1A82002300930193019B02
:102D9000D90740F18980009B9A072FD5484B1A68C4
:102DA000434BB2B91A701978424AC9B2505C3F4AD3
:102DB0000131C9B210821970424B1968013919608A
:102DC0001B68C3B9938823F480631B041B0C938096
:102DD00011E000225A703B4B1B68012B0BD1334A88
:102DE000138823F480631B041B0C138013889BB28D
:102DF00043F400731380002300930193009B03F0BE
:102E00008403802B1AD12F4B1A68A2B12849294A72
:102E10000878C0B2145C254A0130C0B21482087030
:102E20001968013919601B682BB9938823F48063F2
:102E30001B041B0C9380002300930193009B03F061
:102E40008403842B0ED1194A13889BB243F4007378
:102E50001380938823F400731B041B0C93800023BE
:102E600000930193009B5B061ED5114A0F4B5178CE
:102E700011481C8AC9B244540131C9B25170114A77
:102E80001168013911601268012A0AD11A8822F4E6
:102E900080621204120C1A801A8892B242F40072F4
:102EA0001A800023009301931CBD00BF0054004012
:102EB00034020020000000200004002064020020F2
:102EC000280200206C02002013B500230093019318
:102ED0006B4B9A8A92B200921B8B9BB20193019B1F
:102EE00013F0010333D1009A900704D5654A00938B
:102EF00001939370D370009B19060CD5614B624906
:102F00009A78D2B2885C5E490132D2B208829A7055
:102F1000002300930193009B5A060CD5594B584946
:102F2000DA78088A5949D2B288540132D2B2DA70BA
:102F3000002300930193009BDB0608D5504B1A88B1
:102F400092B242F001021A80002300930193009B89
:102F5000D80706D54E4B1A78494B1A8200230093A6
:102F60000193019BD90740F18980009B9A072FD5D7
:102F7000484B1A68434BB2B99A709978464AC9B21D
:102F8000505C3F4A0131C9B210829970434B1968B5
:102F9000013919601B68C3B9938823F480631B044B
:102FA0001B0C938011E00022DA703C4B1B68012B54
:102FB0000BD1334A138823F480631B041B0C13804A
:102FC00013889BB243F40073138000230093019392
:102FD000009B03F08403802B1AD1304B1A68A2B1F6
:102FE0002849294A8878C0B2145C254A0130C0B209
:102FF000148288701968013919601B682BB993888D
:1030000023F480631B041B0C938000230093019323
:10301000009B03F08403842B0ED1194A13889BB2C2
:1030200043F400731380938823F400731B041B0C78
:103030009380002300930193009B5B061ED5114AE9
:103040000F4BD17811481C8AC9B244540131C9B21E
:10305000D170124A1168013911601268012A0AD12F
:103060001A8822F480621204120C1A801A8892B212
:1030700042F400721A800023009301931CBD00BF2C
:103080000058004034020020FF00002071020020A0
:1030900064020020280200200000002068020020B6
:1030A00082B000211A4A0191938A9BB20193019B3D
:1030B000580506D5938A23F480631B041B0C938266
:1030C0000191019B990508D5114A938A23F48063E5
:1030D0001B041B0C938200230193019BDA0508D586
:1030E0000B4A938A23F480731B041B0C93820023E6
:1030F0000193019B1B0508D5054A938A23F40063BD
:103100001B041B0C93820023019302B0704700BF85
:103110000058004082B000211A4A0191938A9BB264
:103120000193019B580506D5938A23F480631B0401
:103130001B0C93820191019B990508D5114A938A32
:1031400023F480631B041B0C938200230193019BD7
:10315000DA0508D50B4A938A23F480731B041B0CF1
:10316000938200230193019B1B0508D5054A938A8E
:1031700023F400631B041B0C93820023019302B011
:10318000704700BF00540040014B1860704700BFFB
:1031900000300040014B5860704700BF00300040D5
:1031A000014B9860704700BF00300040024B4AF668
:1031B000AA221A60704700BF00300040024B4CF654
:1031C000CC421A60704700BF00300040034BDB6800
:1031D00018420CBF00200120704700BF00300040A3
:1031E00008B54FF08050012100F0B2F94FF0805047
:1031F0000021BDE8084000F0ABB9014B18607047F2
:1032000020000E42014B1860704700BF10000E42B4
:10321000034B1A6822F0E00210431860704700BFA9
:1032200000700040014B1860704700BFA0000E42C4
:103230000A4B01291A6822F0030240EA02001860D2
:10324000074B1A6842F004021A6001D130BF00E057
:1032500020BF1A6822F004021A6070470070004014
:1032600010ED00E0074B1A6842F004021A601A6879
:1032700042F002021A60044B1A6842F004021A601B
:1032800030BF70470070004010ED00E0034B5B68FA
:1032900018420CBF00200120704700BF00700040A2
:1032A000024B1A6842EA80001860704700700040C4
:1032B0000E4B1A6842F001021A6059680C4A0A4023
:1032C0005A601A6822F0847222F480321A601A68F6
:1032D00022F480221A605A6822F4FE025A604FF4E7
:1032E0001F029A600022DA62704700BF001002409D
:1032F0000000FFF80C4BB0F5803F1A6822F48032D2
:103300001A601A6822F480221A6003D0B0F5802F68
:1033100008D103E01A6842F4803202E01A6842F4ED
:10332000A0221A60704700BF00100240034B1A68C9
:1033300022F0F80242EAC000186070470010024014
:10334000014B1860704700BF00004242034B5A68AF
:1033500022F4741210430143596070470010024078
:10336000014B1860704700BF60004242044BDA6AAC
:1033700022F4803222F00F0210430143D9627047D9
:1033800000100240034B5A6822F0030210435860B9
:10339000704700BF00100240024B586800F00C005C
:1033A000704700BF00100240034B5A6822F0F00241
:1033B00010435860704700BF00100240034B5A682A
:1033C00022F4E06210435860704700BF00100240D2
:1033D000034B5A6822F4605242EAC00058607047BA
:1033E00000100240044B1A7809B1104301E022EAB0
:1033F00000001870704700BF09100240014B1860B0
:10340000704700BFD8004242034B5A6822F4404242
:1034100010435860704700BF00100240064B002266
:1034200001281A701A7002D0042804D101E0187023
:10343000704705221A70704720100240014B186037
:10344000704700BF80044242024B1A6A1043186260
:10345000704700BF00100240014B1860704700BF6A
:103460003C0442421E4B10B55A6802F00C02042A7A
:1034700001D0082A02D01B4B036012E05A68596839
:10348000C2F38342C90302F1020201D4164B06E0E3
:10349000DB6A144903F00F030133B1FBF3F35A4322
:1034A00002600F4A114B5168C1F303115C5C016863
:1034B000E14041605468C4F302241C5D21FA04F425
:1034C00084605468C4F3C2241C5DE140C16052684A
:1034D000C2F381329B181B7CB1FBF3F1016110BD7B
:1034E0000010024000127A0000093D00FE01002099
:1034F000044B5A6909B1104301E022EA0000586107
:10350000704700BF00100240044B9A6909B1104394
:1035100001E022EA00009861704700BF00100240FD
:10352000044BDA6909B1104301E022EA0000D861D6
:10353000704700BF00100240044BDA6809B1104325
:1035400001E022EA0000D860704700BF001002408E
:10355000044B1A6909B1104301E022EA0000186126
:10356000704700BF00100240014B1860704700BF59
:1035700040044242014B1860704700BF4C00424279
:10358000014B1870704700BF071002404309012B20
:10359000074A01D1136803E0022B0CBF136A536A78
:1035A00000F01F0023FA00F000F00100704700BF98
:1035B0000010024007B5002301933120FFF7E6FF1A
:1035C000019B01330193019BB3F5A06F01D000284B
:1035D000F3D03120FFF7DAFF003018BF01200EBD15
:1035E000024B5A6A42F080725A62704700100240E1
:1035F000034B9B6818420CBF00200120704700BF9E
:1036000000100240014B1870704700BF0A100240C2
:10361000044B1A8892B209B1104301E022EA00007B
:103620001880704700280040034B9A8892B242F0FD
:1036300010029A80704700BF00280040034A938818
:1036400023F010031B041B0C9380704700280040DC
:10365000034B9A8B188B92B242EA0040704700BF2E
:103660000028004010B50446FFF7DEFF044B220C93
:10367000A4B21A839C83BDE81040FFF7DFBF00BFF0
:103680000028004010B50446FFF7CEFF044BC4F3FA
:103690000342A4B21A819C81BDE81040FFF7CEBF5F
:1036A0000028004010B50446FFF7BEFF044B220C73
:1036B000A4B21A849C84BDE81040FFF7BFBF00BFCE
:1036C00000280040044B188A9B8A00F00F009BB230
:1036D00043EA0040704700BF00280040024A938838
:1036E0009B06FCD5704700BF00280040054A938820
:1036F00023F008031B041B0C938093881907FCD547
:10370000704700BF00280040034B9B8818420CBF45
:1037100000200120704700BF00280040034B9A881A
:1037200092B222EA00009880704700BF0028004053
:10373000074B9A881B8892B2034006D0104010F0C5
:10374000FF0F0CBF0020012070471846704700BFD4
:1037500000280040034B9A8892B222EA0000988029
:10376000704700BF00280040064B074900221A603E
:103770005A609A60DA605A629A62DA629963DA632E
:10378000704700BF00800140FF07C000816810B58E
:103790004468094A0C43C16853680C43016823F428
:1037A000FD430C43016923F07F03007D21430B435C
:1037B0000343536010BD00BF008001400023037528
:1037C000036043608360C36003617047014B18600E
:1037D000704700BFA0003042044B1A6822F0030279
:1037E0001A601A6810431860704700BF00800140DB
:1037F000024B186800F00300704700BF00800140D2
:10380000044BDA6B09B1104301E022EA0000D863EF
:10381000704700BF00800140014B1860704700BF37
:103820008C0530420268094B10B59A604168846883
:10383000DA680C43C168006922F4FF62214322F078
:10384000070201430A43DA6010BD00BF0080014057
:103850000023036043608360C36003617047024BD1
:103860001869C0B2704700BF0080014082B00023D9
:103870000193034BC3180193019B186802B0704772
:10388000148001400268094B10B55A6242689A627E
:10389000C2688168DC6A1143026940690A4324F006
:1038A000F70402432243DA6210BD00BF00800140EA
:1038B0004FF0FF330360002343608360C360036104
:1038C00043617047014B186B704700BF0080014097
:1038D000014BD3F88000704700800140014BC3F8D2
:1038E0008000704700800140014B986C704700BF1A
:1038F00000800140014B1860704700BFA0053042B6
:10390000014B1860704700BFA4053042014B18609E
:10391000704700BFA8053042014B1860704700BFD8
:10392000AC053042014B1860704700BFAC0130421B
:10393000014B1860704700BFB001304200F0010039
:10394000024B80F001001860704700BFB4013042A4
:10395000014B1860704700BFB8013042034B5B6BEE
:1039600018420CBF00200120704700BF00800140BA
:10397000014B9863704700BF00800140034B5B6BB5
:1039800018420CBF00200120704700BF008001409A
:10399000014B9863704700BF0080014008B5154B8C
:1039A00098420BD14FF480500121FFF7C5FD4FF431
:1039B00080500021BDE80840FFF7BEBD0E4B984285
:1039C00007D14FF480400121FFF7C2FD4FF4804042
:1039D00009E00A4B98420BD14FF400400121FFF758
:1039E000B7FD4FF400400021BDE80840FFF7B0BD2F
:1039F00008BD00BF0030014000380040003C0040DE
:103A00000B8810B54C88028823438C8802F44152FD
:103A10002343CC8823430C8923434C8923438C893B
:103A20002343CC89234313439BB20380838B23F42A
:103A300000631B041B0C83830B8A038210BD838BE2
:103A4000F0B523F47B6323F00F031B041B0C83836B
:103A5000022303848B68868B022B87B005460C46B5
:103A6000B6B221D001A88F88FFF7FCFCE388019A49
:103A7000002F14BF02270127B3F5007F16BF7F0177
:103A8000120AB2FBF7F20A235343A1680A22B3FBDE
:103A9000F1F305339BB2B3FBF2F303F00102120220
:103AA000C3F34F0392B200E00022991E89B2FE29AF
:103AB00028BF0022E18828BF022313430B439BB297
:103AC0002B8423886288334343F400631343A28822
:103AD0001343A28913439BB2AB8307B0F0BD00230D
:103AE000038043808380C380038143818381C381BA
:103AF00007230382704700230222038043808380D0
:103B0000C380826083817047038819B19BB243F000
:103B1000400303E023F040031B041B0C03807047A9
:103B2000838B19B19BB243F4806303E023F4806379
:103B30001B041B0C83837047090901238B409BB234
:103B40001AB1828892B2134303E0828892B222EAC9
:103B500003038380704783889BB20AB1194301E055
:103B600023EA01018180704781817047808980B29A
:103B700070474FF6FF639942038803D09BB243F42A
:103B8000807303E023F480731B041B0C03807047D5
:103B9000838819B19BB243F0040303E023F00403CC
:103BA0001B041B0C83807047038823F400631B04F1
:103BB0001B0C038003889BB2194301807047038864
:103BC0009BB243F4805303807047038819B19BB2C2
:103BD00043F4005303E023F400531B041B0C038045
:103BE0007047012914BF008B808A80B27047008A19
:103BF00080B27047B1F5804F038803D19BB243F484
:103C0000804303E023F480431B041B0C03807047B4
:103C1000038919420CBF002001207047C94389B2B3
:103C20000181704701F00F02012303FA02F210B57F
:103C300084880089A4B280B2104005D009098B4065
:103C40001C420CBF0020012010BD01F00F01012318
:103C50008B40DB439BB20381704700BF30B5048CBF
:103C600024F001042404240C0484058B048CADB2DC
:103C700025F0F305A4B22A4324F0020442EA031318
:103C800044F001049DB221430583018430BD30B569
:103C9000048C24F010042404240C0484048B058C6C
:103CA00024F44074ADB22405240D25F0200545F020
:103CB000100544EA022242EA033345EA01119BB2AD
:103CC0008DB20383058430BD08B55A4B984207D1A5
:103CD0004FF400600121FFF72FFC4FF40060A2E0D9
:103CE000B0F1804F05D101200146FFF731FC0120E2
:103CF00007E0514B984209D102200121FFF728FC2F
:103D000002200021BDE80840FFF722BC4B4B98423F
:103D100005D104200121FFF71BFC0420F1E7484BEB
:103D2000984205D108200121FFF712FC0820E8E79E
:103D3000444B984205D110200121FFF709FC1020C7
:103D4000DFE7414B984205D120200121FFF700FC1D
:103D50002020D6E73D4B984207D14FF40050012177
:103D6000FFF7EAFB4FF400505DE0394B984207D172
:103D70004FF400200121FFF7DFFB4FF4002052E059
:103D8000344B984207D14FF480100121FFF7D4FB48
:103D90004FF4801047E0304B984207D14FF40010A9
:103DA0000121FFF7C9FB4FF400103CE02B4B984278
:103DB00005D140200121FFF7CBFB4020A1E7284B94
:103DC000984205D180200121FFF7C2FB802098E7AF
:103DD000244B984207D14FF480700121FFF7B8FBC4
:103DE0004FF480708DE7204B984207D14FF480301C
:103DF0000121FFF7A1FB4FF4803014E01B4B9842E8
:103E000007D14FF400300121FFF796FB4FF400304B
:103E100009E0174B98420BD14FF480200121FFF7A6
:103E20008BFB4FF480200021BDE80840FFF784BBE6
:103E300008BD00BF002C0140000400400008004005
:103E4000000C00400010004000140040003401400D
:103E5000004C014000500140005401400018004057
:103E6000001C004000200040004001400044014090
:103E700000480140224A038890429BB212D002F5CA
:103E8000006290420ED0B0F1804F0BD0A2F5983274
:103E9000904207D002F58062904203D002F5806222
:103EA000904203D14A8823F070031343154A90428D
:103EB00008D002F58062904204D023F44073CA888F
:103EC0009BB2134303808B8883850B8803850C4B3F
:103ED00098420FD003F5006398420BD003F540637E
:103EE000984207D003F58063984203D003F58063BE
:103EF000984201D10B7A038601238382704700BF69
:103F0000002C014000100040038C70B523F0010329
:103F10001B041B0C0384038C8488028B0D8822F005
:103F200073021204120C2A434E880D8923F00203F7
:103F30001B043543ADB21B0C2B43144DA4B2A84255
:103F40000FD005F50065A8420BD005F54065A842E5
:103F500007D005F58065A84203D005F58065A84225
:103F60000ED14D8923F008032B438D8823F00403E1
:103F70002B43CE898D8924F440743543ADB22C4354
:103F800084800283CA888286038470BD002C01402D
:103F9000038C30B523F010031B041B0C0384038C2B
:103FA0008288048B0D8824F4E6442404240C23F036
:103FB000200344EA05241B040D891B0C43EA051366
:103FC0004D8892B243EA0513124DA4B2A8429BB2A7
:103FD00003D005F50065A84215D14D8923F0800373
:103FE0009BB243EA05134FF6BF751D408B8822F440
:103FF000406245EA03138D899BB242EA8502CD896E
:1040000042EA850292B28280CA88048302870384CE
:1040100030BD00BF002C0140038C30B523F4807309
:104020001B041B0C0384038C8288848B0D8824F072
:1040300073042404240C23F400732C431B040D8903
:104040001B0C43EA05234D8892B243EA0523124D27
:104050009BB2A84203D005F50065A84215D14D8951
:1040600023F400639BB243EA05234FF6FF351D405E
:104070008B8822F4405245EA03238D899BB242EAA1
:104080000512CD8942EA051292B28280CA888483E1
:104090008287038430BD00BF002C0140038C30B503
:1040A00023F480531B041B0C0384038C8488828BB1
:1040B0000D8822F4E6421204120C23F4005342EA63
:1040C00005221B040D891B0C43EA05334D88A4B25D
:1040D00043EA05330A4D92B2A8429BB203D005F5DC
:1040E0000065A84205D18D8924F4804444EA8514F2
:1040F000A4B284808283CA88A0F84020038430BDA3
:10410000002C01404A880B8813438A881343CA88CD
:1041100013430A8913434A8913438A8913439BB281
:10412000A0F8443070474FF6FF738380002303806C
:10413000C3804380037270470023038043808380E1
:10414000C380038143818381C3817047002301229F
:10415000038043808280C3800381704700230380F3
:1041600043808380C38003814381838170470388B8
:1041700019B19BB243F0010303E023F001031B04D8
:104180001B0C03807047B0F8443029B16FEA4343F9
:104190006FEA53439BB201E0C3F30E03A0F844302F
:1041A000704783899BB20AB1194301E023EA0101F8
:1041B00081817047818270470A43A0F84820704788
:1041C00083899BB20AB1194301E023EA010181818D
:1041D0007047038923F007031B041B0C03817047FE
:1041E000038923F070031B041B0C1943018103890D
:1041F0009BB243F007030381704738B50D46602D2D
:10420000114604464FF0010202D1FFF740FD01E0E4
:10421000FFF724FD238923F070031B041B0C2B43A1
:10422000238123899BB243F00703238138BD10B556
:104230000489E4B221430A4342EA03239CB2048185
:1042400010BD10B50446FFF7F2FF23899BB243F47B
:104250008043238110BD10B50446FFF7E8FF238992
:1042600023F077031B041B0C43F07703238110BD5D
:10427000018582827047038823F070031B041B0CA6
:10428000194301807047038923F070031B041B0C42
:1042900019430181704770B50589048B068C24F49D
:1042A0004074B6B224F0030426F0220625F0070578
:1042B000240432432D04240C2D0C44F4807442EA6F
:1042C0000313294344F001049EB201810483068450
:1042D00070BD038B23F070031B041B0C1943018377
:1042E0007047038B23F4E0431B041B0C43EA0121BA
:1042F0008BB203837047838B23F070031B041B0C6A
:10430000194381837047838B23F4E0431B041B0C08
:1043100043EA01218BB283837047038819B19BB2B2
:1043200043F0800303E023F080031B041B0C038095
:104330007047838819B19BB243F0040303E023F074
:1043400004031B041B0C83807047838819B19BB244
:1043500043F0080303E023F008031B041B0C8380D5
:104360007047838819B19BB243F0010303E023F047
:1043700001031B041B0C83807047038B23F008038D
:104380001B041B0C194301837047038B23F4006348
:104390001B041B0C43EA01218BB203837047838B00
:1043A00023F008031B041B0C194381837047838B84
:1043B00023F400631B041B0C43EA01218BB28383AB
:1043C0007047038B23F004031B041B0C1943018368
:1043D0007047038B23F480631B041B0C43EA012109
:1043E0008BB203837047838B23F004031B041B0CE5
:1043F000194381837047838B23F480631B041B0C58
:1044000043EA01218BB283837047038B23F080033F
:104410001B041B0C194301837047038BC3F30E036A
:1044200043EA01218BB203837047838B23F080031F
:104430001B041B0C194381837047838BC3F30E034A
:1044400043EA01218BB283837047038C23F002037C
:104450001B041B0C194301847047038C23F00803D1
:104460001B041B0C194301847047038C23F02003A9
:104470001B041B0C43EA01118BB203847047038CAD
:1044800023F080031B041B0C43EA01118BB203844D
:104490007047038C23F400731B041B0C43EA0121B7
:1044A0008BB203847047038C23F400631B041B0C42
:1044B00043EA01218BB203847047038C23F4005339
:1044C0001B041B0C43EA01318BB2038470470123A8
:1044D0008B408A4010B5048CA4B224EA0303038401
:1044E000038C13439BB2038410BD04238B408A408A
:1044F00010B5048CA4B224EA03030384038C134391
:104500009BB2038410BD30B501248C40058C00F1B2
:104510001803ADB225EA0404048409B1082906D1C0
:104520004908C85820F07000C850C85809E004393C
:10453000C1F34E01C858120220F4E040C850C858D8
:1045400092B20243CA5030BD038819B19BB243F006
:10455000020303E023F002031B041B0C03807047DB
:10456000038819B19BB243F0040303E023F0040372
:104570001B041B0C03807047838819B19BB243F066
:10458000800303E023F080031B041B0C838070472F
:10459000038823F008031B041B0C038003889BB2D1
:1045A000194301807047838823F070031B041B0CA0
:1045B000838083889BB2194381807047038923F0ED
:1045C00007031B041B0C038103899BB21943018160
:1045D0007047038923F080031B041B0C03810389AC
:1045E0009BB2194301817047818470478185704770
:1045F000818670470187704781877047A0F8401017
:104600007047038B23F00C031B041B0C0383038BE9
:104610009BB2194301837047038B23F440631B044F
:104620001B0C0383038B9BB243EA01218BB20383F0
:104630007047F8B50C46A2884988B4F800E00546F2
:1046400000290CBF02270027012A14BF01260226D9
:104650002389BEF1000F11D1FFF700FB2846E18846
:10466000FFF7CFFF2846394632462389FFF70FFB75
:10467000E1882846BDE8F840FFF7CEBFFFF707FB0B
:104680002846E188FFF7C8FF284639463246238985
:10469000FFF7E4FAE1882846BDE8F840FFF7B1BF2C
:1046A000838B23F00C031B041B0C8383838B9BB233
:1046B000194381837047838B23F440631B041B0CD5
:1046C0008383838B9BB243EA01218BB28383704740
:1046D000F8B50B880D4604464988AA8843B92B894A
:1046E000FFF7BCFAE9882046BDE8F840FFF789BF2C
:1046F000042B08D12B89FFF7CAFAE9882046BDE8C8
:10470000F840FFF789BF082B2F89068C1CD126F4AF
:1047100080763604360C0684868B038CB6B29BB248
:1047200026F0F30623F4007346EA071743EA012153
:10473000BFB289B23A4341F4807182830184E9882F
:10474000BDE8F840FFF7ACBF26F480563604360CBF
:104750000684838B068C23F440731B05B6B21B0DB5
:1047600043EA022326F4005242EA013143EA0733C6
:1047700089B29BB241F4805183830184E988BDE80A
:10478000F840FFF798BF038823F440731B041B0C09
:10479000038003889BB2194301807047808E80B2EA
:1047A0007047008F80B27047808F80B27047B0F83A
:1047B000400080B27047808C80B27047008D80B21C
:1047C0007047038A19420CBF002001207047C9437B
:1047D00089B201827047038A828911EA030092B28A
:1047E00003D011420CBF002001207047C94389B299
:1047F0000182704708B5204B98420BD14FF480409E
:104800000121FEF799FE4FF480400021BDE80840E9
:10481000FEF792BE194B984207D14FF400300121A8
:10482000FEF796FE4FF400301FE0154B984207D17B
:104830004FF480200121FEF78BFE4FF4802014E01E
:10484000104B984207D14FF400200121FEF780FE63
:104850004FF4002009E00C4B98420BD14FF480102C
:104860000121FEF775FE4FF480100021BDE80840DD
:10487000FEF76EBE08BD00BF003801400044004096
:1048800000480040004C004000500040038ACA88A5
:104890009BB223F44053134330B5038283890D4602
:1048A000AA88098923F4B0530A4323F00C036989C9
:1048B0001B040A431B0C13439BB28381838AAA897E
:1048C0009BB223F4407387B013430446838201A84C
:1048D000FEF7C8FD164BA2899C420CBF049B039BAC
:1048E000192112B25943002A2A684FF06403B4BF59
:1048F00052009200B1FBF2F1B1FBF3F21201100988
:1049000003FB1011A08900B2002806DAC900323179
:10491000B1FBF3F303F0070305E009013231B1FB0A
:10492000F3F303F00F031A4392B2228107B030BDB4
:10493000003801404FF4165303600C22002383809B
:10494000C38003814281838170470B8810B54C88F6
:10495000028A23438C88C98892B223430B4322F4F2
:10496000706213439BB2038210BD00230380438017
:104970008380C3807047838919B19BB243F400538D
:1049800003E023F400531B041B0C83817047C1F325
:10499000421310B5012401F01F01A34204FA01F1F2
:1049A00001D10C3003E0022B0CBF1030143003682F
:1049B0000AB1194301E023EA0101016010BD838AB5
:1049C0009BB20AB1194301E023EA010181827047D9
:1049D000038A23F00F031B041B0C0382038A9BB280
:1049E000194301827047838923F400631B041B0C65
:1049F000838183899BB2194381817047838919B16F
:104A00009BB243F0020303E023F002031B041B0CE0
:104A100083817047038A23F020031B041B0C03824D
:104A2000038A9BB2194301827047038A19B19BB272
:104A300043F4804303E023F480431B041B0C0382F4
:104A40007047C1F30801818070478088C0F3080077
:104A5000704783899BB243F0010383817047038BC6
:104A6000DBB20383038B9BB243EA012101837047CE
:104A7000038B03F47F430383038B9BB219430183AE
:104A80007047838A19B19BB243F0200303E023F0FF
:104A900020031B041B0C83827047838A19B19BB2CD
:104AA00043F0100303E023F010031B041B0C83826C
:104AB0007047838A19B19BB243F0080303E023F0E7
:104AC00008031B041B0C83827047838929B16FEA9A
:104AD00043436FEA53439BB201E0C3F30E03838168
:104AE0007047838A19B19BB243F4006303E023F457
:104AF00000631B041B0C83827047838A23F004032A
:104B00001B041B0C8382838A9BB2194381827047EA
:104B1000838A19B19BB243F0020303E023F002033E
:104B20001B041B0C83827047038819420CBF0020B2
:104B300001207047C94389B20180704710B5C1F3A5
:104B4000421401F01F030122012C02FA03F201D1E9
:104B5000838903E0022C0CBF038A838A9BB2134033
:104B6000028892B243B10123090A03FA01F111420A
:104B70000CBF0020012010BD184610BD090A0123FA
:104B80008B40DB439BB20380704700BF08B54FF4F6
:104B900000600121FEF7DCFC4FF400600021BDE85D
:104BA0000840FEF7D5BC034B5A6822F4C07210438C
:104BB00058607047002C004082B000230193074BDF
:104BC00000F07F005A6822F07F020192019A0243AE
:104BD0000192019A5A6002B0704700BF002C004059
:104BE000014B01221A607047A4800542024B00F07D
:104BF0007F001860704700BF002C0040024B40F05F
:104C000080001860704700BF002C0040014B98687E
:104C1000C0B27047002C0040014B00229A607047E0
:104C2000002C00401E4B1A6842F001021A605968BD
:104C30001C4A0A405A601A6822F0847222F48032B8
:104C40001A601A6822F480221A605A6822F4FE025E
:104C50005A604FF41F029A600022DA625A6822F406
:104C60007C125A605A6842F480125A601A6842F004
:104C700080721A6019680A4A8901FBD5536823F0CB
:104C800003035360536843F002035360536803F017
:104C90000C03082BFAD1044B4FF000629A60704766
:104CA000001002400000FFF800ED00E0144A154B30
:104CB000516801F00C01042901D0082902D0124AE0
:104CC0001A6012E051685068C1F38341C00301F1DA
:104CD000020101D40D4A06E0D26A0B4802F00F022D
:104CE0000132B0FBF2F251431960054B5A68054B93
:104CF000C2F303129A1811791A68CA401A607047F1
:104D0000001002401402002000127A0000093D0049
:104D1000E955000800000020280200202802002099
:104D2000140500202DE9F04F0521D5B0A348FBF76D
:104D300091FEFBF7D7FEFBF79DFEFBF749FFA04B6B
:104D40000126A04C5E61A048FBF76AFB20230025EA
:104D500063704FF0E0091023A370257021464FF0D7
:104D6000E208CDF80090032202239748FBF760FA8F
:104D7000E4272146CDF80080032202239248FBF766
:104D800057FA21460097032202238F48FBF750FA77
:104D9000FE23237002220323637021461346CDF8BD
:104DA00000908948FBF744FA022221461346CDF8C9
:104DB00000808548FBF73CFA022221461346009703
:104DC0008148FBF735FA814B4FF480725A614FF4FA
:104DD000E12302937E48042302A9ADF81230ADF816
:104DE0000C50ADF80E50ADF81050ADF81450FFF760
:104DF0004DFD31467648FFF7BEFD06AF3C462E46D8
:104E0000B8464FF018092661666109FB0580013537
:104E1000FBF7EEFD052D04F11804F4D1DFF8B8819D
:104E20006C4C00260DF190093D464FF0000AAB682E
:104E3000EA6801339342AB6006DB18200DEB0003F8
:104E400000FB0A30FBF7D4FD2A682869AB68801A9A
:104E50005843E96890FBF1F01218C8F8002068691F
:104E60006A68801A434393FBF1F102EB010B594945
:104E7000594801F108030A1DFBF776FECBF30A033C
:104E8000B3F5806F16DBC3F500612268A3F580637C
:104E90001B0302FB01304FF4806290FBF2F02060B4
:104EA000606800FB013090FBF2F06060A06800FBDE
:104EB00001330EE0226802FB03F14FF4806291FBA4
:104EC000F2F121606168594391FBF2F16160A168E0
:104ED0004B4393FBF2F22368A260C9F80030636889
:104EE0000AF1010AC9F80430A368BAF1050FC9F83C
:104EF000083005F1180509F10C0998D1314B06224B
:104F00001A7000220DF1900940F6FF75114652F813
:104F1000090009EB020CA842A8BF2846D870C0F3CC
:104F200003201871DCF804000C32A842A8BF284600
:104F3000D871C0F303201872DCF808005970A84239
:104F4000A8BF2846D8723C2AC0F303209970597133
:104F50009971597299724FF0000E03F80C0FD6D167
:104F6000184B032283F83DE083F83EE083F83F20AE
:104F700083F84020124B96F001064FF0010214BF57
:104F80005A611A61E02300930E49412202230E4820
:104F9000FBF74EF9E22300930A49412202230A4813
:104FA000FBF746F9E4230093064941220223064811
:104FB000FBF73EF90120FBF7C1FD33E700050020B8
:104FC000000801400000002000540040000C014097
:104FD000003801407003002010050020002100F07F
:104FE00004B80C4B5B58435004310B480B4B421830
:104FF0009A42FFF4F6AF0A4A00F003B8002342F8E1
:10500000043B084B9A42FFF4F9AFFFF70BFEFFF7A2
:1050100089FE7047E95500080000002028020020A2
:105020002802002014050020FFF7FEBF0200000048
:04503000000000017B
:1055E9000506080A00000000000000000000000095
:1055F90000000000000000000000000000000000A2
:105609000000000000000000000000000000000091
:105619000000000000000000000000000000000081
:105629000000000000000000000000000000000071
:105639000000000000000000000000000000000061
:105649000000000000000000000000000000000051
:105659000000000000000000000000000000000041
:105669000000000000000000000000000000000031
:105679000000000000000000000000000000000021
:105689000000000000000000000000000000000011
:105699000000000000000000000000000000000001
:1056A90000000000000000000000000000000000F1
:1056B90000000000000000000000000000000000E1
:1056C90000000000000000000000000000000000D1
:1056D9000000000000000000000000000000000FB2
:1056E9000B0C0D000000000000000000000000008D
:1056F90000000000000000000000000000000000A1
:105709000000000000000000000000000000000090
:105719000000000000000000000000000000000080
:105729000000000000000000000000000000000070
:105739000000000000000000000000000000000060
:105749000000000000000000000000000000000050
:105759000000000000000000000000000000000040
:105769000000000000000000000000000000000030
:105779000000000000000000000000000000000020
:105789000000000000000000000000000000000010
:105799000000000000000000000000000000000000
:1057A90000000000000000000000000000000000F0
:1057B90000000000000000000000000000000000E0
:1057C90000000000000000000000000000000000D0
:1057D90000000000000000000000000000000000C0
:1057E9000000010203040102030406070809020478
:1057F9000608000000366E010000000000000000ED
:0858090001020304060708096F
:0400000508004FDDC3
:00000001FF
